{
	"data": {
		"bytecode": {
			"linkReferences": {},
			"object": "608060405234801561001057600080fd5b50336000806101000a81548173ffffffffffffffffffffffffffffffffffffffff021916908373ffffffffffffffffffffffffffffffffffffffff160217905550600060018190555061046d806100686000396000f3fe608060405234801561001057600080fd5b50600436106100625760003560e01c8063227024731461006757806362d6bbdf146100855780638da5cb5b146100b5578063a26be999146100d3578063e7fb74c7146100ef578063f61c899a1461010b575b600080fd5b61006f610127565b60405161007c91906102d3565b60405180910390f35b61009f600480360381019061009a91906101e7565b61012d565b6040516100ac91906102b8565b60405180910390f35b6100bd610135565b6040516100ca919061029d565b60405180910390f35b6100ed60048036038101906100e89190610243565b610159565b005b61010960048036038101906101049190610243565b61015c565b005b61012560048036038101906101209190610243565b61015f565b005b60015481565b600092915050565b60008054906101000a900473ffffffffffffffffffffffffffffffffffffffff1681565b50565b50565b50565b600061017561017084610313565b6102ee565b90508281526020810184848401111561019157610190610400565b5b61019c84828561038c565b509392505050565b600082601f8301126101b9576101b86103fb565b5b81356101c9848260208601610162565b91505092915050565b6000813590506101e181610420565b92915050565b600080604083850312156101fe576101fd61040a565b5b600083013567ffffffffffffffff81111561021c5761021b610405565b5b610228858286016101a4565b9250506020610239858286016101d2565b9150509250929050565b6000602082840312156102595761025861040a565b5b6000610267848285016101d2565b91505092915050565b61027981610344565b82525050565b61028881610356565b82525050565b61029781610382565b82525050565b60006020820190506102b26000830184610270565b92915050565b60006020820190506102cd600083018461027f565b92915050565b60006020820190506102e8600083018461028e565b92915050565b60006102f8610309565b9050610304828261039b565b919050565b6000604051905090565b600067ffffffffffffffff82111561032e5761032d6103cc565b5b6103378261040f565b9050602081019050919050565b600061034f82610362565b9050919050565b60008115159050919050565b600073ffffffffffffffffffffffffffffffffffffffff82169050919050565b6000819050919050565b82818337600083830152505050565b6103a48261040f565b810181811067ffffffffffffffff821117156103c3576103c26103cc565b5b80604052505050565b7f4e487b7100000000000000000000000000000000000000000000000000000000600052604160045260246000fd5b600080fd5b600080fd5b600080fd5b600080fd5b6000601f19601f8301169050919050565b61042981610382565b811461043457600080fd5b5056fea26469706673582212205d0cda8cd3dee197858c4292b9cefd9fe452805af807e972a2bea78ac9dc2e7f64736f6c63430008070033",
			"opcodes": "PUSH1 0x80 PUSH1 0x40 MSTORE CALLVALUE DUP1 ISZERO PUSH2 0x10 JUMPI PUSH1 0x0 DUP1 REVERT JUMPDEST POP CALLER PUSH1 0x0 DUP1 PUSH2 0x100 EXP DUP2 SLOAD DUP2 PUSH20 0xFFFFFFFFFFFFFFFFFFFFFFFFFFFFFFFFFFFFFFFF MUL NOT AND SWAP1 DUP4 PUSH20 0xFFFFFFFFFFFFFFFFFFFFFFFFFFFFFFFFFFFFFFFF AND MUL OR SWAP1 SSTORE POP PUSH1 0x0 PUSH1 0x1 DUP2 SWAP1 SSTORE POP PUSH2 0x46D DUP1 PUSH2 0x68 PUSH1 0x0 CODECOPY PUSH1 0x0 RETURN INVALID PUSH1 0x80 PUSH1 0x40 MSTORE CALLVALUE DUP1 ISZERO PUSH2 0x10 JUMPI PUSH1 0x0 DUP1 REVERT JUMPDEST POP PUSH1 0x4 CALLDATASIZE LT PUSH2 0x62 JUMPI PUSH1 0x0 CALLDATALOAD PUSH1 0xE0 SHR DUP1 PUSH4 0x22702473 EQ PUSH2 0x67 JUMPI DUP1 PUSH4 0x62D6BBDF EQ PUSH2 0x85 JUMPI DUP1 PUSH4 0x8DA5CB5B EQ PUSH2 0xB5 JUMPI DUP1 PUSH4 0xA26BE999 EQ PUSH2 0xD3 JUMPI DUP1 PUSH4 0xE7FB74C7 EQ PUSH2 0xEF JUMPI DUP1 PUSH4 0xF61C899A EQ PUSH2 0x10B JUMPI JUMPDEST PUSH1 0x0 DUP1 REVERT JUMPDEST PUSH2 0x6F PUSH2 0x127 JUMP JUMPDEST PUSH1 0x40 MLOAD PUSH2 0x7C SWAP2 SWAP1 PUSH2 0x2D3 JUMP JUMPDEST PUSH1 0x40 MLOAD DUP1 SWAP2 SUB SWAP1 RETURN JUMPDEST PUSH2 0x9F PUSH1 0x4 DUP1 CALLDATASIZE SUB DUP2 ADD SWAP1 PUSH2 0x9A SWAP2 SWAP1 PUSH2 0x1E7 JUMP JUMPDEST PUSH2 0x12D JUMP JUMPDEST PUSH1 0x40 MLOAD PUSH2 0xAC SWAP2 SWAP1 PUSH2 0x2B8 JUMP JUMPDEST PUSH1 0x40 MLOAD DUP1 SWAP2 SUB SWAP1 RETURN JUMPDEST PUSH2 0xBD PUSH2 0x135 JUMP JUMPDEST PUSH1 0x40 MLOAD PUSH2 0xCA SWAP2 SWAP1 PUSH2 0x29D JUMP JUMPDEST PUSH1 0x40 MLOAD DUP1 SWAP2 SUB SWAP1 RETURN JUMPDEST PUSH2 0xED PUSH1 0x4 DUP1 CALLDATASIZE SUB DUP2 ADD SWAP1 PUSH2 0xE8 SWAP2 SWAP1 PUSH2 0x243 JUMP JUMPDEST PUSH2 0x159 JUMP JUMPDEST STOP JUMPDEST PUSH2 0x109 PUSH1 0x4 DUP1 CALLDATASIZE SUB DUP2 ADD SWAP1 PUSH2 0x104 SWAP2 SWAP1 PUSH2 0x243 JUMP JUMPDEST PUSH2 0x15C JUMP JUMPDEST STOP JUMPDEST PUSH2 0x125 PUSH1 0x4 DUP1 CALLDATASIZE SUB DUP2 ADD SWAP1 PUSH2 0x120 SWAP2 SWAP1 PUSH2 0x243 JUMP JUMPDEST PUSH2 0x15F JUMP JUMPDEST STOP JUMPDEST PUSH1 0x1 SLOAD DUP2 JUMP JUMPDEST PUSH1 0x0 SWAP3 SWAP2 POP POP JUMP JUMPDEST PUSH1 0x0 DUP1 SLOAD SWAP1 PUSH2 0x100 EXP SWAP1 DIV PUSH20 0xFFFFFFFFFFFFFFFFFFFFFFFFFFFFFFFFFFFFFFFF AND DUP2 JUMP JUMPDEST POP JUMP JUMPDEST POP JUMP JUMPDEST POP JUMP JUMPDEST PUSH1 0x0 PUSH2 0x175 PUSH2 0x170 DUP5 PUSH2 0x313 JUMP JUMPDEST PUSH2 0x2EE JUMP JUMPDEST SWAP1 POP DUP3 DUP2 MSTORE PUSH1 0x20 DUP2 ADD DUP5 DUP5 DUP5 ADD GT ISZERO PUSH2 0x191 JUMPI PUSH2 0x190 PUSH2 0x400 JUMP JUMPDEST JUMPDEST PUSH2 0x19C DUP5 DUP3 DUP6 PUSH2 0x38C JUMP JUMPDEST POP SWAP4 SWAP3 POP POP POP JUMP JUMPDEST PUSH1 0x0 DUP3 PUSH1 0x1F DUP4 ADD SLT PUSH2 0x1B9 JUMPI PUSH2 0x1B8 PUSH2 0x3FB JUMP JUMPDEST JUMPDEST DUP2 CALLDATALOAD PUSH2 0x1C9 DUP5 DUP3 PUSH1 0x20 DUP7 ADD PUSH2 0x162 JUMP JUMPDEST SWAP2 POP POP SWAP3 SWAP2 POP POP JUMP JUMPDEST PUSH1 0x0 DUP2 CALLDATALOAD SWAP1 POP PUSH2 0x1E1 DUP2 PUSH2 0x420 JUMP JUMPDEST SWAP3 SWAP2 POP POP JUMP JUMPDEST PUSH1 0x0 DUP1 PUSH1 0x40 DUP4 DUP6 SUB SLT ISZERO PUSH2 0x1FE JUMPI PUSH2 0x1FD PUSH2 0x40A JUMP JUMPDEST JUMPDEST PUSH1 0x0 DUP4 ADD CALLDATALOAD PUSH8 0xFFFFFFFFFFFFFFFF DUP2 GT ISZERO PUSH2 0x21C JUMPI PUSH2 0x21B PUSH2 0x405 JUMP JUMPDEST JUMPDEST PUSH2 0x228 DUP6 DUP3 DUP7 ADD PUSH2 0x1A4 JUMP JUMPDEST SWAP3 POP POP PUSH1 0x20 PUSH2 0x239 DUP6 DUP3 DUP7 ADD PUSH2 0x1D2 JUMP JUMPDEST SWAP2 POP POP SWAP3 POP SWAP3 SWAP1 POP JUMP JUMPDEST PUSH1 0x0 PUSH1 0x20 DUP3 DUP5 SUB SLT ISZERO PUSH2 0x259 JUMPI PUSH2 0x258 PUSH2 0x40A JUMP JUMPDEST JUMPDEST PUSH1 0x0 PUSH2 0x267 DUP5 DUP3 DUP6 ADD PUSH2 0x1D2 JUMP JUMPDEST SWAP2 POP POP SWAP3 SWAP2 POP POP JUMP JUMPDEST PUSH2 0x279 DUP2 PUSH2 0x344 JUMP JUMPDEST DUP3 MSTORE POP POP JUMP JUMPDEST PUSH2 0x288 DUP2 PUSH2 0x356 JUMP JUMPDEST DUP3 MSTORE POP POP JUMP JUMPDEST PUSH2 0x297 DUP2 PUSH2 0x382 JUMP JUMPDEST DUP3 MSTORE POP POP JUMP JUMPDEST PUSH1 0x0 PUSH1 0x20 DUP3 ADD SWAP1 POP PUSH2 0x2B2 PUSH1 0x0 DUP4 ADD DUP5 PUSH2 0x270 JUMP JUMPDEST SWAP3 SWAP2 POP POP JUMP JUMPDEST PUSH1 0x0 PUSH1 0x20 DUP3 ADD SWAP1 POP PUSH2 0x2CD PUSH1 0x0 DUP4 ADD DUP5 PUSH2 0x27F JUMP JUMPDEST SWAP3 SWAP2 POP POP JUMP JUMPDEST PUSH1 0x0 PUSH1 0x20 DUP3 ADD SWAP1 POP PUSH2 0x2E8 PUSH1 0x0 DUP4 ADD DUP5 PUSH2 0x28E JUMP JUMPDEST SWAP3 SWAP2 POP POP JUMP JUMPDEST PUSH1 0x0 PUSH2 0x2F8 PUSH2 0x309 JUMP JUMPDEST SWAP1 POP PUSH2 0x304 DUP3 DUP3 PUSH2 0x39B JUMP JUMPDEST SWAP2 SWAP1 POP JUMP JUMPDEST PUSH1 0x0 PUSH1 0x40 MLOAD SWAP1 POP SWAP1 JUMP JUMPDEST PUSH1 0x0 PUSH8 0xFFFFFFFFFFFFFFFF DUP3 GT ISZERO PUSH2 0x32E JUMPI PUSH2 0x32D PUSH2 0x3CC JUMP JUMPDEST JUMPDEST PUSH2 0x337 DUP3 PUSH2 0x40F JUMP JUMPDEST SWAP1 POP PUSH1 0x20 DUP2 ADD SWAP1 POP SWAP2 SWAP1 POP JUMP JUMPDEST PUSH1 0x0 PUSH2 0x34F DUP3 PUSH2 0x362 JUMP JUMPDEST SWAP1 POP SWAP2 SWAP1 POP JUMP JUMPDEST PUSH1 0x0 DUP2 ISZERO ISZERO SWAP1 POP SWAP2 SWAP1 POP JUMP JUMPDEST PUSH1 0x0 PUSH20 0xFFFFFFFFFFFFFFFFFFFFFFFFFFFFFFFFFFFFFFFF DUP3 AND SWAP1 POP SWAP2 SWAP1 POP JUMP JUMPDEST PUSH1 0x0 DUP2 SWAP1 POP SWAP2 SWAP1 POP JUMP JUMPDEST DUP3 DUP2 DUP4 CALLDATACOPY PUSH1 0x0 DUP4 DUP4 ADD MSTORE POP POP POP JUMP JUMPDEST PUSH2 0x3A4 DUP3 PUSH2 0x40F JUMP JUMPDEST DUP2 ADD DUP2 DUP2 LT PUSH8 0xFFFFFFFFFFFFFFFF DUP3 GT OR ISZERO PUSH2 0x3C3 JUMPI PUSH2 0x3C2 PUSH2 0x3CC JUMP JUMPDEST JUMPDEST DUP1 PUSH1 0x40 MSTORE POP POP POP JUMP JUMPDEST PUSH32 0x4E487B7100000000000000000000000000000000000000000000000000000000 PUSH1 0x0 MSTORE PUSH1 0x41 PUSH1 0x4 MSTORE PUSH1 0x24 PUSH1 0x0 REVERT JUMPDEST PUSH1 0x0 DUP1 REVERT JUMPDEST PUSH1 0x0 DUP1 REVERT JUMPDEST PUSH1 0x0 DUP1 REVERT JUMPDEST PUSH1 0x0 DUP1 REVERT JUMPDEST PUSH1 0x0 PUSH1 0x1F NOT PUSH1 0x1F DUP4 ADD AND SWAP1 POP SWAP2 SWAP1 POP JUMP JUMPDEST PUSH2 0x429 DUP2 PUSH2 0x382 JUMP JUMPDEST DUP2 EQ PUSH2 0x434 JUMPI PUSH1 0x0 DUP1 REVERT JUMPDEST POP JUMP INVALID LOG2 PUSH5 0x6970667358 0x22 SLT KECCAK256 0x5D 0xC 0xDA DUP13 0xD3 0xDE 0xE1 SWAP8 DUP6 DUP13 TIMESTAMP SWAP3 0xB9 0xCE REVERT SWAP16 0xE4 MSTORE DUP1 GAS 0xF8 SMOD 0xE9 PUSH19 0xA2BEA78AC9DC2E7F64736F6C63430008070033 "
		},
		"gasEstimates": {
			"creation": {
				"codeDepositCost": "226600",
				"executionCost": "29549",
				"totalCost": "256149"
			},
			"external": {
				"addItem(string,uint256)": "infinite",
				"buyItem(uint256)": "472",
				"owner()": "2533",
				"receiveItem(uint256)": "450",
				"shipItem(uint256)": "494",
				"skuCount()": "2407"
			}
		},
		"methodIdentifiers": {
			"addItem(string,uint256)": "62d6bbdf",
			"buyItem(uint256)": "e7fb74c7",
			"owner()": "8da5cb5b",
			"receiveItem(uint256)": "a26be999",
			"shipItem(uint256)": "f61c899a",
			"skuCount()": "22702473"
		}
	},
	"abi": [
		{
			"inputs": [],
			"stateMutability": "nonpayable",
			"type": "constructor"
		},
		{
			"inputs": [
				{
					"internalType": "string",
					"name": "_name",
					"type": "string"
				},
				{
					"internalType": "uint256",
					"name": "_price",
					"type": "uint256"
				}
			],
			"name": "addItem",
			"outputs": [
				{
					"internalType": "bool",
					"name": "",
					"type": "bool"
				}
			],
			"stateMutability": "nonpayable",
			"type": "function"
		},
		{
			"inputs": [
				{
					"internalType": "uint256",
					"name": "sku",
					"type": "uint256"
				}
			],
			"name": "buyItem",
			"outputs": [],
			"stateMutability": "nonpayable",
			"type": "function"
		},
		{
			"inputs": [],
			"name": "owner",
			"outputs": [
				{
					"internalType": "address",
					"name": "",
					"type": "address"
				}
			],
			"stateMutability": "view",
			"type": "function"
		},
		{
			"inputs": [
				{
					"internalType": "uint256",
					"name": "sku",
					"type": "uint256"
				}
			],
			"name": "receiveItem",
			"outputs": [],
			"stateMutability": "nonpayable",
			"type": "function"
		},
		{
			"inputs": [
				{
					"internalType": "uint256",
					"name": "sku",
					"type": "uint256"
				}
			],
			"name": "shipItem",
			"outputs": [],
			"stateMutability": "nonpayable",
			"type": "function"
		},
		{
			"inputs": [],
			"name": "skuCount",
			"outputs": [
				{
					"internalType": "uint256",
					"name": "",
					"type": "uint256"
				}
			],
			"stateMutability": "view",
			"type": "function"
		}
	]
}